{
    "_format": "hh-sol-artifact-1",
    "contractName": "Lottery",
    "sourceName": "contracts/lottery.sol",
    "abi": [
        {
            "inputs": [
                {
                    "internalType": "address",
                    "name": "vrfCoordinatorV2",
                    "type": "address"
                },
                {
                    "internalType": "uint256",
                    "name": "_entranceFee",
                    "type": "uint256"
                },
                {
                    "internalType": "bytes32",
                    "name": "gasLane",
                    "type": "bytes32"
                },
                {
                    "internalType": "uint64",
                    "name": "subscriptionId",
                    "type": "uint64"
                },
                {
                    "internalType": "uint32",
                    "name": "callbackGasLimit",
                    "type": "uint32"
                },
                {
                    "internalType": "uint256",
                    "name": "interval",
                    "type": "uint256"
                }
            ],
            "stateMutability": "nonpayable",
            "type": "constructor"
        },
        {
            "inputs": [],
            "name": "Lottery__LotteryNotOpen",
            "type": "error"
        },
        {
            "inputs": [],
            "name": "Lottery__NotEnoughETHEntered",
            "type": "error"
        },
        {
            "inputs": [],
            "name": "Lottery__TransferFailed",
            "type": "error"
        },
        {
            "inputs": [
                {
                    "internalType": "uint256",
                    "name": "currentBalance",
                    "type": "uint256"
                },
                {
                    "internalType": "uint256",
                    "name": "numPlayers",
                    "type": "uint256"
                },
                {
                    "internalType": "uint256",
                    "name": "lotteryState",
                    "type": "uint256"
                }
            ],
            "name": "Lottery__UpkeepNotNeeded",
            "type": "error"
        },
        {
            "inputs": [
                {
                    "internalType": "address",
                    "name": "have",
                    "type": "address"
                },
                {
                    "internalType": "address",
                    "name": "want",
                    "type": "address"
                }
            ],
            "name": "OnlyCoordinatorCanFulfill",
            "type": "error"
        },
        {
            "anonymous": false,
            "inputs": [
                {
                    "indexed": true,
                    "internalType": "address",
                    "name": "player",
                    "type": "address"
                }
            ],
            "name": "LotteryEnter",
            "type": "event"
        },
        {
            "anonymous": false,
            "inputs": [
                {
                    "indexed": false,
                    "internalType": "uint256",
                    "name": "winner",
                    "type": "uint256"
                }
            ],
            "name": "RequestsLotteryWinner",
            "type": "event"
        },
        {
            "anonymous": false,
            "inputs": [
                {
                    "indexed": true,
                    "internalType": "address",
                    "name": "winner",
                    "type": "address"
                }
            ],
            "name": "WinnerPicked",
            "type": "event"
        },
        {
            "inputs": [
                {
                    "internalType": "bytes",
                    "name": "",
                    "type": "bytes"
                }
            ],
            "name": "checkUpkeep",
            "outputs": [
                {
                    "internalType": "bool",
                    "name": "upkeepNeeded",
                    "type": "bool"
                },
                {
                    "internalType": "bytes",
                    "name": "",
                    "type": "bytes"
                }
            ],
            "stateMutability": "view",
            "type": "function"
        },
        {
            "inputs": [],
            "name": "enterLottery",
            "outputs": [],
            "stateMutability": "payable",
            "type": "function"
        },
        {
            "inputs": [],
            "name": "getEntranceFee",
            "outputs": [
                {
                    "internalType": "uint256",
                    "name": "",
                    "type": "uint256"
                }
            ],
            "stateMutability": "view",
            "type": "function"
        },
        {
            "inputs": [],
            "name": "getInterval",
            "outputs": [
                {
                    "internalType": "uint256",
                    "name": "",
                    "type": "uint256"
                }
            ],
            "stateMutability": "view",
            "type": "function"
        },
        {
            "inputs": [],
            "name": "getLastTimeStamp",
            "outputs": [
                {
                    "internalType": "uint256",
                    "name": "",
                    "type": "uint256"
                }
            ],
            "stateMutability": "view",
            "type": "function"
        },
        {
            "inputs": [],
            "name": "getLotteryState",
            "outputs": [
                {
                    "internalType": "enum Lottery.LotteryState",
                    "name": "",
                    "type": "uint8"
                }
            ],
            "stateMutability": "view",
            "type": "function"
        },
        {
            "inputs": [],
            "name": "getNumWords",
            "outputs": [
                {
                    "internalType": "uint256",
                    "name": "",
                    "type": "uint256"
                }
            ],
            "stateMutability": "pure",
            "type": "function"
        },
        {
            "inputs": [],
            "name": "getNumberOfPlayers",
            "outputs": [
                {
                    "internalType": "uint256",
                    "name": "",
                    "type": "uint256"
                }
            ],
            "stateMutability": "view",
            "type": "function"
        },
        {
            "inputs": [
                {
                    "internalType": "uint256",
                    "name": "index",
                    "type": "uint256"
                }
            ],
            "name": "getPlayer",
            "outputs": [
                {
                    "internalType": "address",
                    "name": "",
                    "type": "address"
                }
            ],
            "stateMutability": "view",
            "type": "function"
        },
        {
            "inputs": [],
            "name": "getRecentWinner",
            "outputs": [
                {
                    "internalType": "address",
                    "name": "",
                    "type": "address"
                }
            ],
            "stateMutability": "view",
            "type": "function"
        },
        {
            "inputs": [],
            "name": "getRequestConfirmations",
            "outputs": [
                {
                    "internalType": "uint256",
                    "name": "",
                    "type": "uint256"
                }
            ],
            "stateMutability": "pure",
            "type": "function"
        },
        {
            "inputs": [
                {
                    "internalType": "bytes",
                    "name": "",
                    "type": "bytes"
                }
            ],
            "name": "performUpkeep",
            "outputs": [],
            "stateMutability": "nonpayable",
            "type": "function"
        },
        {
            "inputs": [
                {
                    "internalType": "uint256",
                    "name": "requestId",
                    "type": "uint256"
                },
                {
                    "internalType": "uint256[]",
                    "name": "randomWords",
                    "type": "uint256[]"
                }
            ],
            "name": "rawFulfillRandomWords",
            "outputs": [],
            "stateMutability": "nonpayable",
            "type": "function"
        }
    ],
    "bytecode": "0x6101606040523480156200001257600080fd5b506040516200187d3803806200187d8339818101604052810190620000389190620002a0565b858073ffffffffffffffffffffffffffffffffffffffff1660808173ffffffffffffffffffffffffffffffffffffffff1660601b81525050508460a081815250508573ffffffffffffffffffffffffffffffffffffffff1660c08173ffffffffffffffffffffffffffffffffffffffff1660601b815250508360e081815250508267ffffffffffffffff166101008167ffffffffffffffff1660c01b815250508163ffffffff166101208163ffffffff1660e01b815250506000600160146101000a81548160ff021916908360018111156200011957620001186200033c565b5b0217905550426002819055508061014081815250505050505050506200036b565b600080fd5b600073ffffffffffffffffffffffffffffffffffffffff82169050919050565b60006200016c826200013f565b9050919050565b6200017e816200015f565b81146200018a57600080fd5b50565b6000815190506200019e8162000173565b92915050565b6000819050919050565b620001b981620001a4565b8114620001c557600080fd5b50565b600081519050620001d981620001ae565b92915050565b6000819050919050565b620001f481620001df565b81146200020057600080fd5b50565b6000815190506200021481620001e9565b92915050565b600067ffffffffffffffff82169050919050565b62000239816200021a565b81146200024557600080fd5b50565b60008151905062000259816200022e565b92915050565b600063ffffffff82169050919050565b6200027a816200025f565b81146200028657600080fd5b50565b6000815190506200029a816200026f565b92915050565b60008060008060008060c08789031215620002c057620002bf6200013a565b5b6000620002d089828a016200018d565b9650506020620002e389828a01620001c8565b9550506040620002f689828a0162000203565b94505060606200030989828a0162000248565b93505060806200031c89828a0162000289565b92505060a06200032f89828a01620001c8565b9150509295509295509295565b7f4e487b7100000000000000000000000000000000000000000000000000000000600052602160045260246000fd5b60805160601c60a05160c05160601c60e0516101005160c01c6101205160e01c61014051611496620003e760003960008181610687015261073001526000610515015260006104f2015260006104d1015260006104950152600081816102fa0152610792015260008181610320015261037401526114966000f3fe6080604052600436106100c25760003560e01c80636b68c03c1161007f578063c1af578511610059578063c1af578514610259578063c1c244e814610263578063e55ae4e81461028e578063fd6673f5146102cb576100c2565b80636b68c03c146101c55780636e04ff0d146101f057806391ad27b41461022e576100c2565b806309bc33a7146100c75780631fe543e3146100f25780634585e33b1461011b578063473f1ddc1461014457806353a2c19a1461016f5780635f1b0fd81461019a575b600080fd5b3480156100d357600080fd5b506100dc6102f6565b6040516100e99190610c17565b60405180910390f35b3480156100fe57600080fd5b5061011960048036038101906101149190610dcb565b61031e565b005b34801561012757600080fd5b50610142600480360381019061013d9190610e82565b6103de565b005b34801561015057600080fd5b506101596105e7565b6040516101669190610f10565b60405180910390f35b34801561017b57600080fd5b50610184610611565b6040516101919190610c17565b60405180910390f35b3480156101a657600080fd5b506101af610620565b6040516101bc9190610c17565b60405180910390f35b3480156101d157600080fd5b506101da61062d565b6040516101e79190610fa2565b60405180910390f35b3480156101fc57600080fd5b5061021760048036038101906102129190611072565b610644565b60405161022592919061115e565b60405180910390f35b34801561023a57600080fd5b5061024361072c565b6040516102509190610c17565b60405180910390f35b610261610754565b005b34801561026f57600080fd5b506102786108c9565b6040516102859190610c17565b60405180910390f35b34801561029a57600080fd5b506102b560048036038101906102b0919061118e565b6108d3565b6040516102c29190610f10565b60405180910390f35b3480156102d757600080fd5b506102e061091a565b6040516102ed9190610c17565b60405180910390f35b60007f0000000000000000000000000000000000000000000000000000000000000000905090565b7f000000000000000000000000000000000000000000000000000000000000000073ffffffffffffffffffffffffffffffffffffffff163373ffffffffffffffffffffffffffffffffffffffff16146103d057337f00000000000000000000000000000000000000000000000000000000000000006040517f1cf993f40000000000000000000000000000000000000000000000000000000081526004016103c79291906111bb565b60405180910390fd5b6103da8282610926565b5050565b60006103f860405180602001604052806000815250610644565b509050806104675747600080549050600160149054906101000a900460ff16600181111561042957610428610f2b565b5b6040517f6e195f2500000000000000000000000000000000000000000000000000000000815260040161045e939291906111e4565b60405180910390fd5b60018060146101000a81548160ff0219169083600181111561048c5761048b610f2b565b5b021790555060007f000000000000000000000000000000000000000000000000000000000000000073ffffffffffffffffffffffffffffffffffffffff16635d3b1d307f00000000000000000000000000000000000000000000000000000000000000007f000000000000000000000000000000000000000000000000000000000000000060037f000000000000000000000000000000000000000000000000000000000000000060016040518663ffffffff1660e01b8152600401610556959493929190611293565b602060405180830381600087803b15801561057057600080fd5b505af1158015610584573d6000803e3d6000fd5b505050506040513d601f19601f820116820180604052508101906105a891906112fb565b90507f8d5f435435b940449e43ed935aa61852a0133fefeee85306735a9b25326fc646816040516105d99190610c17565b60405180910390a150505050565b6000600160009054906101000a900473ffffffffffffffffffffffffffffffffffffffff16905090565b6000600163ffffffff16905090565b6000600361ffff16905090565b6000600160149054906101000a900460ff16905090565b600060606000600160149054906101000a900460ff16600181111561066c5761066b610f2b565b5b600060018111156106805761067f610f2b565b5b14905060007f0000000000000000000000000000000000000000000000000000000000000000600254426106b49190611357565b119050600080600080549050119050600080471190508280156106d45750835b80156106dd5750805b80156106e65750815b9550856040518060400160405280600381526020017f30783000000000000000000000000000000000000000000000000000000000008152509550955050505050915091565b60007f0000000000000000000000000000000000000000000000000000000000000000905090565b6000600181111561076857610767610f2b565b5b600160149054906101000a900460ff16600181111561078a57610789610f2b565b5b1415610895577f00000000000000000000000000000000000000000000000000000000000000003410156107ea576040517fec269fd100000000000000000000000000000000000000000000000000000000815260040160405180910390fd5b6000339080600181540180825580915050600190039060005260206000200160009091909190916101000a81548173ffffffffffffffffffffffffffffffffffffffff021916908373ffffffffffffffffffffffffffffffffffffffff1602179055503373ffffffffffffffffffffffffffffffffffffffff167f1d64fb5ba9f2548c5b98468d58f25b87b9e866afee0122e92d9fe722bf85076c60405160405180910390a26108c7565b6040517f823ea8bb00000000000000000000000000000000000000000000000000000000815260040160405180910390fd5b565b6000600254905090565b60008082815481106108e8576108e761138b565b5b9060005260206000200160009054906101000a900473ffffffffffffffffffffffffffffffffffffffff169050919050565b60008080549050905090565b60008080549050826000815181106109415761094061138b565b5b602002602001015161095391906113e9565b9050600080828154811061096a5761096961138b565b5b9060005260206000200160009054906101000a900473ffffffffffffffffffffffffffffffffffffffff16905080600160006101000a81548173ffffffffffffffffffffffffffffffffffffffff021916908373ffffffffffffffffffffffffffffffffffffffff1602179055506000600160146101000a81548160ff021916908360018111156109fe576109fd610f2b565b5b0217905550600067ffffffffffffffff811115610a1e57610a1d610c88565b5b604051908082528060200260200182016040528015610a4c5781602001602082028036833780820191505090505b5060009080519060200190610a62929190610b57565b504260028190555060008173ffffffffffffffffffffffffffffffffffffffff1647604051610a909061144b565b60006040518083038185875af1925050503d8060008114610acd576040519150601f19603f3d011682016040523d82523d6000602084013e610ad2565b606091505b5050905080610b0d576040517f1c94012000000000000000000000000000000000000000000000000000000000815260040160405180910390fd5b8173ffffffffffffffffffffffffffffffffffffffff167f5b690ec4a06fe979403046eaeea5b3ce38524683c3001f662c8b5a829632f7df60405160405180910390a25050505050565b828054828255906000526020600020908101928215610bd0579160200282015b82811115610bcf5782518260006101000a81548173ffffffffffffffffffffffffffffffffffffffff021916908373ffffffffffffffffffffffffffffffffffffffff16021790555091602001919060010190610b77565b5b509050610bdd9190610be1565b5090565b5b80821115610bfa576000816000905550600101610be2565b5090565b6000819050919050565b610c1181610bfe565b82525050565b6000602082019050610c2c6000830184610c08565b92915050565b6000604051905090565b600080fd5b600080fd5b610c4f81610bfe565b8114610c5a57600080fd5b50565b600081359050610c6c81610c46565b92915050565b600080fd5b6000601f19601f8301169050919050565b7f4e487b7100000000000000000000000000000000000000000000000000000000600052604160045260246000fd5b610cc082610c77565b810181811067ffffffffffffffff82111715610cdf57610cde610c88565b5b80604052505050565b6000610cf2610c32565b9050610cfe8282610cb7565b919050565b600067ffffffffffffffff821115610d1e57610d1d610c88565b5b602082029050602081019050919050565b600080fd5b6000610d47610d4284610d03565b610ce8565b90508083825260208201905060208402830185811115610d6a57610d69610d2f565b5b835b81811015610d935780610d7f8882610c5d565b845260208401935050602081019050610d6c565b5050509392505050565b600082601f830112610db257610db1610c72565b5b8135610dc2848260208601610d34565b91505092915050565b60008060408385031215610de257610de1610c3c565b5b6000610df085828601610c5d565b925050602083013567ffffffffffffffff811115610e1157610e10610c41565b5b610e1d85828601610d9d565b9150509250929050565b600080fd5b60008083601f840112610e4257610e41610c72565b5b8235905067ffffffffffffffff811115610e5f57610e5e610e27565b5b602083019150836001820283011115610e7b57610e7a610d2f565b5b9250929050565b60008060208385031215610e9957610e98610c3c565b5b600083013567ffffffffffffffff811115610eb757610eb6610c41565b5b610ec385828601610e2c565b92509250509250929050565b600073ffffffffffffffffffffffffffffffffffffffff82169050919050565b6000610efa82610ecf565b9050919050565b610f0a81610eef565b82525050565b6000602082019050610f256000830184610f01565b92915050565b7f4e487b7100000000000000000000000000000000000000000000000000000000600052602160045260246000fd5b60028110610f6b57610f6a610f2b565b5b50565b6000819050610f7c82610f5a565b919050565b6000610f8c82610f6e565b9050919050565b610f9c81610f81565b82525050565b6000602082019050610fb76000830184610f93565b92915050565b600080fd5b600067ffffffffffffffff821115610fdd57610fdc610c88565b5b610fe682610c77565b9050602081019050919050565b82818337600083830152505050565b600061101561101084610fc2565b610ce8565b90508281526020810184848401111561103157611030610fbd565b5b61103c848285610ff3565b509392505050565b600082601f83011261105957611058610c72565b5b8135611069848260208601611002565b91505092915050565b60006020828403121561108857611087610c3c565b5b600082013567ffffffffffffffff8111156110a6576110a5610c41565b5b6110b284828501611044565b91505092915050565b60008115159050919050565b6110d0816110bb565b82525050565b600081519050919050565b600082825260208201905092915050565b60005b838110156111105780820151818401526020810190506110f5565b8381111561111f576000848401525b50505050565b6000611130826110d6565b61113a81856110e1565b935061114a8185602086016110f2565b61115381610c77565b840191505092915050565b600060408201905061117360008301856110c7565b81810360208301526111858184611125565b90509392505050565b6000602082840312156111a4576111a3610c3c565b5b60006111b284828501610c5d565b91505092915050565b60006040820190506111d06000830185610f01565b6111dd6020830184610f01565b9392505050565b60006060820190506111f96000830186610c08565b6112066020830185610c08565b6112136040830184610c08565b949350505050565b6000819050919050565b61122e8161121b565b82525050565b600067ffffffffffffffff82169050919050565b61125181611234565b82525050565b600061ffff82169050919050565b61126e81611257565b82525050565b600063ffffffff82169050919050565b61128d81611274565b82525050565b600060a0820190506112a86000830188611225565b6112b56020830187611248565b6112c26040830186611265565b6112cf6060830185611284565b6112dc6080830184611284565b9695505050505050565b6000815190506112f581610c46565b92915050565b60006020828403121561131157611310610c3c565b5b600061131f848285016112e6565b91505092915050565b7f4e487b7100000000000000000000000000000000000000000000000000000000600052601160045260246000fd5b600061136282610bfe565b915061136d83610bfe565b9250828210156113805761137f611328565b5b828203905092915050565b7f4e487b7100000000000000000000000000000000000000000000000000000000600052603260045260246000fd5b7f4e487b7100000000000000000000000000000000000000000000000000000000600052601260045260246000fd5b60006113f482610bfe565b91506113ff83610bfe565b92508261140f5761140e6113ba565b5b828206905092915050565b600081905092915050565b50565b600061143560008361141a565b915061144082611425565b600082019050919050565b600061145682611428565b915081905091905056fea26469706673582212202fec72ef73e5bbc4aa00594c09b407a219a7930186981d2b9283049a28807c3c64736f6c63430008080033",
    "linkReferences": {},
    "deployedLinkReferences": {}
}